:020000040800F2
:10000000C8060020B5010008651200085D1200084E
:10001000611200087102000885120008000000004B
:100020000000000000000000000000006D12000849
:100030007502000800000000691200087112000833
:10004000CF010008CF010008CF010008CF01000850
:10005000CF010008CF010008CF010008CF01000840
:10006000CF010008CF010008CF010008CF01000830
:10007000CF010008CF010008CF010008CF01000820
:10008000CF010008CF010008CF010008CF01000810
:1000900079120008CF010008CF010008790200089A
:1000A000CF010008CF010008CF010008CF010008F0
:1000B000CF010008CF010008CF010008CF010008E0
:1000C000CF010008CF010008CF010008CF010008D0
:1000D000CF010008CF010008CF010008CF010008C0
:1000E000CF010008CF010008CF01000800F002F89E
:1000F00000F050F814A696E8000CB244B344DA4578
:1001000001D100F047F8BAE80F000FA696E83000DA
:10011000A5EB040504EB0607AAEB0704A7F101070A
:100120004FEA15154FEA3414A4F10104AC4201D38F
:1001300000F030F813F0010F18BFFB1A43F0010371
:1001400000F001F8DBE71847F0130000101400007E
:10015000103A24BF78C878C1FAD8520724BF30C8F3
:1001600030C144BF04680C60704700007047000055
:100170000023002400250026103A28BF78C1FBD8B0
:10018000520728BF30C148BF0B6070471FB51FBD65
:1001900010B510BD00F031F81146FFF7F7FF01F080
:1001A00073F800F04FF803B4FFF7F2FF03BC00F060
:1001B00057F800000948804709480047FEE7FEE776
:1001C000FEE7FEE7FEE7FEE7FEE7FEE7FEE7FEE707
:1001D00004480549054A064B70470000751200089F
:1001E000ED000008C8000020C8060020C80200205A
:1001F000C8020020704770477047754600F02CF821
:10020000AE4605006946534620F00700854618B003
:1002100020B5FFF7DDFFBDE820404FF000064FF0AE
:1002200000074FF000084FF0000BAC46ACE8C009E7
:10023000ACE8C009ACE8C009ACE8C00921F007018E
:100240008D46704710B50446AFF300802046BDE8E8
:100250001040FFF7A8BF00000048704710000020C2
:1002600001491820ABBEFEE72600020070470000DF
:10027000FEE7000070470000202000F019BB0000DE
:1002800010B590F820E0D0F800C0AEF1010EBEF13C
:10029000010FDCF808E011D81EF0E05F18D0CEF3B3
:1002A000016E012000FA0EF018608B68D3B1486827
:1002B000CC6844EAC000034318E000BF00F1240109
:1002C00001204FF480220B681A430A6010BD00BF62
:1002D00000F1240101204FF400120B681A430A6058
:1002E00010BD00BF0868CB6843EA40530CEB0E100A
:1002F000C0F880310B69C0F88431097D012905D12E
:1003000000F5C2710B6843F480730B605168C0F84C
:100310008C11126800F5C071C0F8882100200122FC
:100320000B681A430A6010BD026890F82030013B48
:10033000012B29D8B0B5D2F80002012340F001000A
:10034000C2F80002D1F814E0CC690EF01F0003FAE5
:1003500000F0D2F81C326FEA000C8343012CC2F883
:100360001C3217D06CBBD2F80C3203EA0C03C2F873
:100370000C32CB688C8844EA034302EBCE04C4F809
:1003800040320B4615E000BF416A41F480214162D2
:1003900001207047D2F80C320343C2F80C320B68CC
:1003A0008C8844EA034302EBCE04C4F8403201F1E6
:1003B0000C038C681B8843EA044302EBCE04C4F8A8
:1003C0004432D2F804328D6943EA0004D1F810E0D7
:1003D000096A002D08BF03EA0C04C2F80442D2F8EF
:1003E0001432BEF1000F43EA000408BF03EA0C0414
:1003F0000129C2F8144204D1D2F81C120843C2F8F1
:100400001C02D2F8000220F00100C2F80002002015
:10041000B0BD0000704700002DE9F04F81B00446E8
:1004200000684669D0F804908768D0F80CB0D0F81E
:1004300010A0D0F81880F10704D1002530071DD492
:1004400024E000BFF90710D00121BA07816009D468
:10045000780700F1AF80380700F1B680204600F041
:1004600003FA02E0204600F001FA0025F80500F149
:100470008780F80300F1B180300707D51BF010002A
:1004800004D0206845F400751021C160700708D5BC
:100490001BF0080005D020680821C160204600F04C
:1004A000ABF9B00706D52068C068800702D02046A7
:1004B00000F0A4F9700607D51AF0100004D02068E7
:1004C00045F4806510210161B00608D51AF00800D6
:1004D00005D0206808210161204600F091F9F0065E
:1004E00006D520680069800702D0204600F08AF90E
:1004F000B00308D519F0100005D020681021416024
:10050000204600F081F9F00308D519F0080005D065
:10051000206808214160204600F0B2F9300440F123
:100520009B805FEA497040F1948006F4807008EA8D
:10053000102028435FEA8871014648BF41F002015C
:10054000B20558BF01465FEA48700D4648BF45F006
:100550000405700558BF0D46300540F17A8018F04B
:10056000700000F076801038000905286CD8DFE8AC
:1005700000F003595D61656945F0080564E000BF5E
:1005800020684FF48071BA0581600BD4780515D4CA
:1005900038051DD4204600F06BF9F8037FF56CAFE9
:1005A0001BE000BF204600F065F9F8037FF564AF5B
:1005B00013E000BF4FF4006558E700BF05F5005594
:1005C000F8037FF559AF08E04FF480554EE700BFC0
:1005D00005F58045F8037FF54FAF20684FF4803173
:1005E000BA0381600AD4780310D4380314D42046A7
:1005F00000F042F930073FF541AF47E7204600F0F1
:100600003DF930073FF53AAF40E700BF05F500453B
:1006100030073FF533AF39E705F5803530073FF553
:100620002DAF33E745F010050EE000BF45F0200583
:100630000AE000BF45F0400506E000BF45F0800538
:1006400002E000BF45F480752068816921F07001E7
:10065000816120680421416055B1606A40EA05016A
:100660002046616201B0BDE8F04FFFF7D3BE00BF86
:1006700001B0BDE8F08F0000002804BF01207047E2
:10068000B0B5044690F8200010B9204600F06EF88E
:100690002068016841F00101016000F02BFA054675
:1006A00020684168C90705D100F024FA401B0B28D7
:1006B000F6D310E0016821F00201016000F01AFA9F
:1006C000054600BF2068416889070DD500F012FA81
:1006D000401B0B28F6D3606A052140F400306062AD
:1006E000012084F82010B0BD217E0268012922F08B
:1006F000800208BF80320260617E0268012922F018
:10070000400208BF40320260A17E0268012922F047
:10071000200208BF20320260E17E0268012922F037
:10072000100218BF10320260217F0268012922F0F6
:10073000080208BF08320260617F0268012922F0C6
:10074000040208BF04320260D4E901C2D4E90335CF
:1007500061691A432A431143ACF101021143C1619B
:1007600000200121606284F82010B0BDB0B586B0D1
:1007700040F60004C4F201040068A4F524420021FC
:100780009042059102D006B0B0BD00BF41F2180002
:10079000C4F20200426802AD42F000724260426858
:1007A00002F000720192019A026842F004020260B3
:1007B000006800F00400019001984FF40060CDE95A
:1007C000020104912046294600F07EF84FF4805043
:1007D000029002200390032005902046294600F055
:1007E00073F814200021002200F004FA142000F015
:1007F000EFF906B0B0BD0000704700007047000080
:10080000704700007047000070470000B0B5044614
:1008100090F8200001281DD1022084F820002068D3
:10082000016821F00101016000F064F9054600BF94
:1008300020684068C00713D000F05CF9401B0B280B
:10084000F6D3606A40F400306062052084F820002E
:100850000120B0BD606A40F4002060620120B0BD9C
:1008600000206062B0BD00007047000070470000CB
:10087000704700007047000070470000704700009C
:1008800070470000B0B5044600F034F9054640F268
:100890000000C2F200000078611C18BF044400BFD1
:1008A00000F028F9401BA042FAD3B0BD7047000009
:1008B00040F21441C4F201010A68024214BF086008
:1008C0007047FFF7F3BF00002DE9F04F82B00E68CC
:1008D000002E00F0FD8041F20042C4F20102042328
:1008E00040F2004E904208BF03234FF6FF7CC4F253
:1008F000010E009300240123C1F2100C4FF0000AF6
:100900004FF0000944E000BF012704F00C030F2260
:100910009A402BEA020207FA03F34FEA9A051A43B8
:1009200046F825204E6840F20C45F202DEF8082019
:1009300054BF22EA080242EA0802C4F20105CEF8D6
:1009400008202A68B30254BF22EA080242EA0802D9
:100950002A60B303DEF8042054BF22EA080242EA08
:100960000802F303CEF80420DEF800204FF0010364
:1009700054BF22EA080242EA0802CEF800200E68BC
:100980000AF1010A36FA0AF204F1040400F0A08028
:1009900003FA0AFB16EA0B08F1D04E68664511DC33
:1009A000122E55D8DFE806F0340A44485454545403
:1009B0005454545454545454544C5000D1F80C9042
:1009C00046E000BF4FF6FF72C1F2210296420FDCF3
:1009D0000022C1F2110296421AD00022C1F2120284
:1009E000964215D00022C1F22102964210D02FE08B
:1009F0000022C1F2220296420AD00022C1F2310244
:100A0000964205D00022C1F23202964220D100BFA8
:100A10008A684AB1012A14BFC0F814B0C0F810B0F7
:100A20004FF0080914E000BF4FF0040910E000BFC8
:100A3000CA6802F108090BE04FF0000908E000BFA6
:100A4000CA6802F1040903E0CA6802F10C0900BF98
:100A500022460646B8F5807F24BF203A0436376820
:100A60000F25954027EA050509FA02F22A4332606C
:100A7000CA79D2067FF583AF41F21803C4F20203AC
:100A80001A68AEF57E7642F001021A601A6802F02A
:100A900001020192019A2AF0030256F802B040F6D0
:100AA0000002C4F20102904210D040F60042C4F2AB
:100AB000010290423FF428AF41F20002C4F2010269
:100AC000009F904208BF02271FE700BF00271CE7D6
:100AD00002B0BDE8F08F0000C26802EA0103914352
:100AE00041EA034101617047002A08BF090401611E
:100AF0007047000040F2C000C2F20000006870477A
:100B000040F2000040F2C001C2F20000C2F2000157
:100B100000780A68104408607047000080B542F20F
:100B20000000C4F20200016841F0100101600320DE
:100B300000F08CF80F2000F005F800F027F80020F6
:100B400080BD000070B540F20006C2F2000640F21F
:100B500008013278C2F200014FF47A730968B3FBDE
:100B6000F2F20446B1FBF2F1084600F061FB0F2CF3
:100B70004FF0010508D838B94FF0FF302146002268
:100B8000002500F037F87460284670BD82B041F24D
:100B90001800C4F202000168022241F00101016064
:100BA000016801F0010101910199416841F0805112
:100BB0004160406800F08050009000980420C4F22A
:100BC0000100016862F31A61016002B07047000021
:100BD000002848BF704700F01F01012202FA01F10E
:100BE0001C2202EAD0004EF20012CEF20002815026
:100BF0007047000010B54EF60C5CCEF2000CDCF82D
:100C00000030C3F3022E8EF00704042C28BF042406
:100C1000BEF103034FF0FF3E0EFA04F438BF002389
:100C2000A14399400EFA03F39A43114300F00F02D7
:100C300000F160430901043A03F56443624400286B
:100C400048BF02F10C03197010BD00004EF60C51A4
:100C5000CEF200010A684FF6FF031A4060F30A2241
:100C600042F0806040F0FD7008607047002804BFCB
:100C7000012070472DE9F04381B042F20008C4F230
:100C800002080446D8F800000D4600F0070088422C
:100C90000CD2D8F8000020F007002843C8F8000064
:100CA000D8F8000000F00700A8426CD1206841F29B
:100CB00004098107C4F2020917D5410705D5D9F8FF
:100CC000001041F4E061C9F80010010705D5D9F81A
:100CD000001041F46051C9F80010D9F80010A26862
:100CE00021F0F0011143C9F80010C00742D1D8F833
:100CF000000000F00700A8420CD9D8F8000020F04E
:100D000007002843C8F80000D8F8000000F00700EA
:100D1000A84238D12068410707D5D9F80010E26809
:100D200021F4E0611143C9F80010000708D5D9F893
:100D30000000216920F4605040EAC100C9F80000B9
:100D4000D9F8002002F00C00082841F20020C0F27F
:100D50007A0051D141F22853C2F38341C0F6000317
:100D6000595CD2033CD440F60010C0F23D00484329
:100D700042E000BF606802280AD001282AD159F851
:100D8000041C890308D4012001B0BDE8F08300BF32
:100D900059F8041C8901F6D5D9F8001021F0030197
:100DA0000843C9F80000FFF7A5FE064641F2883760
:100DB000D9F80000616800F00C00B0EB810F96D00C
:100DC000FFF798FE801BB842F2D9032001B0BDE8BE
:100DD000F08300BF59F8041C8907D4D5DCE700BFB5
:100DE000D9F8002041F22653C2F34042C0F6000376
:100DF0009A5C4843B0FBF2F0D9F8001041F2165269
:100E0000C1F30311C0F60002515C40F2080220FA5F
:100E100001F140F20400C2F200000068C2F20002D8
:100E20001160FFF78FFE002001B0BDE8F0830000E5
:100E3000002804BF012070472DE9F04182B004462C
:100E4000007841F20006C007C4F202060CD07068B8
:100E500000F00C00042840F081803068800303D546
:100E60006068002800F04E81207880071BD57068EC
:100E700010F00C0F09D0706800F00C00082840F04A
:100E80008B807068C00300F187803068800703D5CD
:100E90002069012840F036813068616920F0F8004F
:100EA00040EAC10030602078000713D42078400762
:100EB0002CD4E569002D00F02081706800F00C0052
:100EC000082840F0AF80012D40F00C81012002B0D5
:100ED000BDE8F081A069002800F08C800020C4F2F9
:100EE00042200121C0F88014FFF704FE054600BF30
:100EF000706A800700F1BA80FFF7FCFD401B0228F2
:100F0000F6D9032002B0BDE8F08100BFF0695FEAC6
:100F1000C00808D4F06940F08050F061F06900F03A
:100F200080500090009847F20007C4F2000738682C
:100F3000C0054DD4386840F480703860FFF7DAFDA2
:100F4000054600BF3868C00542D4FFF7D3FD401BFB
:100F50006428F7D9032002B0BDE8F081706800F082
:100F60000C00082803D17068C0033FF576AF6068B5
:100F7000002800F00981B0F5A02F00F01D81B0F528
:100F8000803F00F01D81306820F480303060306890
:100F900020F4802017E100BF2069002840F2000003
:100FA000C4F2422000F08C8001210160FFF7A2FD15
:100FB000054600BF306880073FF56EAFFFF79AFD2A
:100FC000401B0228F6D9032002B0BDE8F08100BF23
:100FD000E068002800F09A80052800F0B180012820
:100FE00000F0B280306A20F001003062306A20F0F8
:100FF0000400ACE00020C4F242200021C0F88014BC
:10100000FFF778FD054600BF706A80077FF54EAF99
:10101000FFF770FD401B0228F6D9032002B0BDE89F
:10102000F08100BF0027C4F2422700203866FFF796
:1010300061FD022D05460DD13068800140F1D6805A
:10104000FFF758FD401B02284FF00300F4D902B00F
:10105000BDE8F081306880014FD5FFF74BFD401BA4
:1010600002284FF00300F5D9F1E700BF40F2080075
:10107000C2F20000006844F6D351C1F26201A0FB45
:101080000101480A019000BF00BF0198411E0028DD
:1010900001913FF40BAF00BF0198411E0028019160
:1010A0003FF404AF00BF0198411E002801913FF4B6
:1010B000FDAE00BF0198411E00280191E4D1F5E684
:1010C00000210160FFF716FD054600BF306880076C
:1010D0007FF5E9AEFFF70EFD401B02284FF003003D
:1010E000F4D9B4E77068216A00F480328A4209D1E9
:1010F000616A00F47010884204D1002002B0BDE89B
:10110000F08100BF012002B0BDE8F081306A20F01C
:1011100001003062306A20F004003062FFF7EAFC20
:10112000054641F2883700BF306A800722D5FFF7B5
:10113000E1FC401BB8424FF00300F5D987E700BF40
:10114000306A40F004003062306A40F001003062E2
:10115000FFF7D0FC054641F2883700BF306A8007B0
:1011600008D4FFF7C7FC401BB842F7D9032002B0F0
:10117000BDE8F081B8F1000F3FF59BAEF06920F0BB
:101180008050F06195E600BF306820F48030306018
:10119000306820F480203060FFF7ACFC054600BFCB
:1011A000306880037FF560AEFFF7A4FC401B642825
:1011B0004FF00300F4D94AE7306840F480203060F3
:1011C000306840F480303060FFF794FC054600BF83
:1011D000306880033FF548AEFFF78CFC401B642865
:1011E000F6D9032002B0BDE8F08100BF206AB0F557
:1011F000803F05D17168A26821F40031114371600C
:101200007168626A21F4741111430843706001200F
:101210003866FFF76FFC0446306880013FF56DAF1C
:10122000FFF768FC001B02284FF00300F4D90EE71B
:10123000411E0020B0EB116F1CBF012070474EF221
:101240001002CEF2000251604EF62351CEF20001A0
:10125000F0230B700721906011607047FEE70000DB
:10126000FEE70000FEE70000704700007047000046
:10127000FFF746BC7047000040F29800C2F2000041
:10128000FFF7CAB8FEE7000090B0FFF747FC002464
:101290000120CDE90B44CDE9094406900A904FF4B2
:1012A000E0104FF4803102250F9006A8CDE9071415
:1012B000CDE90D51FFF7BCFD20B1EFF3108072B600
:1012C000FEE700BF0F20CDE901054FF48060CDE9B6
:1012D000040401A802210394FFF7C8FC20B1EFF336
:1012E000108072B6FEE700BF41F21809C4F202098D
:1012F000D9F8000040F6000840F01000C9F80000DE
:10130000D9F80000C4F2010800F010000690069819
:10131000D9F8000008F5006440F02000C9F800008A
:10132000D9F800004FF4005100F020000690069814
:10133000D9F80000002240F00400C9F80000D9F8F4
:1013400000004FF4005600F0040006900698204676
:101350000025FFF7C9FB0696022006AE4FF0010AF2
:10136000099020463146CDE907A5FFF7ADFA2020C8
:1013700006900020C1F21100CDE907054046314634
:10138000FFF7A2FA172000210022FFF733FC1720F5
:10139000FFF71EFC40F27007C2F2000746F2004160
:1013A000C4F20001384640F8281F48214FF480322B
:1013B000C0E90115C0E90352C0E905558583FFF76F
:1013C0005BF928B1EFF3108072B600BFFEE700BFF3
:1013D0000A20CDE90A5042F2600007F1280642F2E5
:1013E000084BCDE90605CDE9080506A93046C4F24B
:1013F000010BCDF838A0CDE90C5A0F95FEF794FFFC
:101400003046FFF703FA022240F24640C7E906558C
:101410003A623861D9F8000040F205210843C9F862
:101420000000D8F800000BF1440120F00F00C8F8CC
:101430000000D8F8000020F00100C8F80000CBF848
:101440002C50DBF8000040F48010CBF80000DBF8F3
:10145000000040F46020CBF80000DBF8000040F012
:101460000200CBF80000DBF8000040F48070CBF8FD
:10147000000059F8040C40F0010049F8040C082061
:10148000C4F20200C76081604260016841F0E3017C
:101490000160DBF8000040F00100CBF80000069589
:1014A0000698B0F57A7F1BDA069801300690069808
:1014B000B0F57A7F14DA0698013006900698B0F5F8
:1014C0007A7F0DDA0698013006900698B0F57A7F9B
:1014D00006DA0698013006900698B0F57A7FE3DBCD
:1014E000DBF8000040F00100CBF8000038883A46F5
:1014F00022F8080F02F1200002F10801131FFEF785
:10150000BFFE20464FF40051FFF7E6FA4FF4AF70EC
:10151000FFF7B8F9EAE70000000000000000010250
:101520000304060708090102020304050607080967
:101530000A0B0C0D0E0F10105815000800000020AB
:10154000100000005001000868150008100000207D
:10155000B806000070010008010000001000000043
:0815600000127A0000000000F7
:04000005080000ED02
:00000001FF
