:020000040800F2
:10000000F0060020CD010008611B0008591B000804
:100010005D1B00088D0A0008B91B000800000000E5
:10002000000000000000000000000000691B000844
:100030009D0A000800000000651B00086D1B0008F9
:10004000E7010008E7010008E7010008E7010008F0
:10005000E7010008E7010008E7010008E7010008E0
:10006000E7010008E7010008E7010008E7010008D0
:10007000E7010008E7010008E7010008E7010008C0
:10008000E7010008E7010008E7010008E7010008B0
:10009000E7010008910A0008E7010008E7010008ED
:1000A000E7010008E7010008E7010008E701000890
:1000B000751B0008E7010008E7010008E7010008D8
:1000C000E7010008E7010008E7010008E701000870
:1000D000E7010008E7010008E7010008E701000860
:1000E000E7010008E7010008E701000800F002F856
:1000F00000F05DF814A696E8000CB244B344DA456B
:1001000001D100F054F8BAE80F000FA696E83000CD
:10011000A5EB040504EB0607AAEB0704A7F101070A
:100120004FEA15154FEA3414A4F10104AC4201D38F
:1001300000F03DF813F0010F18BFFB1A43F0010364
:1001400000F001F8DBE71847042E0000242E000021
:10015000103A24BF78C878C1FAD8520724BF30C8F3
:1001600030C144BF04680C60704700007047000055
:100170000023002400250026103A28BF78C1FBD8B0
:10018000520728BF30C148BF0B607047662902F094
:100190007F86002070471FB500F002FB040000209E
:1001A000002102F04BFBE0601FBD10B510BD00F058
:1001B000F7FB1146FFF7EFFF01F000FD00F015FC23
:1001C00003B4FFF7F2FF03BC00F058FC0948804776
:1001D00009480047FEE7FEE7FEE7FEE7FEE7FEE729
:1001E000FEE7FEE7FEE7FEE704480549054A064B41
:1001F00070470000711B0008ED000008F0000020AF
:10020000F0060020F0020020F00200200FB41CB520
:10021000074B06AA7B4469460090059800F0A7FAB0
:100220000020694600F0B6FA1CBC5DF814FB000023
:100230007D0500002DE9F0474FF0000A894604468D
:10024000C0F820A02046E1688847002876D02528FD
:1002500006D0D4E901219047206A401C2062F1E7D2
:10026000E168204600258847C4F81CA00646002700
:10027000C4F818A02A2E09D0304602F0D7FA38B3B5
:1002800004EB8708303EC8F8186019E059F8041BE1
:10029000204604EB87029161E1688847012F0646FA
:1002A00018D1E069002820DA25F020051DE0D8F8F3
:1002B000180000EB800006EB40003038C8F818004A
:1002C0002046E1688847064602F0B0FA0028EED1E1
:1002D000012F0AD02E2E08D12046E16888477F1CC6
:1002E0000646022F45F02005C4DBA069002803DA8A
:1002F000404245F00105A061E80701D025F0100556
:10030000B6B1A6F14100192802D8203645F400659F
:100310004A463146204625604D46FFF737FF58B123
:10032000012806D0ED1D25F0070000F1080989E736
:1003300004E005F1040985E730468AE7206ABDE854
:10034000F0877047704770472DE9FF4F0C461E46F7
:100350004FF0FF378BB0D2E90001DDF860800A90E2
:100360008A46C1F30A5505B93D46002108464FF0BB
:100370000000BAF1000F00F4400005DA00EB800045
:100380004FF4400101EA50004FEA9059B9F1010FD2
:1003900000DDB9460A9850EA4A000ED044F61050E3
:1003A000A5F2FF3545432F14B8F1000F1ED075425A
:1003B000291E1EDDC9F100021CE0B8F1010F4FF04B
:1003C000000001D0302103E0F24305E02154401C3D
:1003D000B042FBDB30460022002121540B99C1F8CA
:1003E0000880C1E900200FB0BDE8F08FBD1B6D1C77
:1003F000DEE74A4600DA694206A800F05BFA06AB7F
:1004000093E8070003AB83E8070050460A9901F020
:1004100030FE8DE80700A0F500501F3800900398CB
:10042000002D0ADD42F21F014A460844002303A9B9
:100430000390684602F09AF809E0A0F500504A4699
:100440001F38002303A90390684602F0A4F88DE842
:1004500007000004000C03D04FF0FF30410800E01B
:100460001046B8F1000F03D00022009215461EE09E
:10047000751E05D400F098F9303262556D1EF9D51D
:10048000B3460122084302D000227F1C04E02078FA
:10049000302801D100227F1E002A099784D01DE058
:1004A000112D07DA00F080F9303262556D1C50EAE8
:1004B0000102F5D1084302D00098C8B10EE0002136
:1004C000681E05E0235C625C63542254401E491C94
:1004D0008142F7DBAB46A81B401E0990002004F8C0
:1004E0000B000B98099AC0F80880C0E9002B7AE746
:1004F00011264FF0000857E72DE9F04F88460446D3
:10050000D21D22F0070191B0D1E90001CDE90A0125
:1005100002F078F902460B98C00F01D02D2007E0B9
:100520002068810701D52B2002E0202101EAC000CC
:10053000032A099001D0072A05DB034641462046DD
:1005400000F078F90BE12078800601D5E06900E041
:100550000620B8F1650F814606D0B8F1660F18D0B5
:10056000B8F1670F70D131E00020B9F1110F0090A0
:1005700001DB112301E009F101030AAA01A90CA87A
:10058000FFF7E2FEDDE90C70002609F10105834664
:1005900047E001204B4600904FF000470AAA01A90E
:1005A0000CA8FFF7D1FEDDE90DB00C995D460026E1
:1005B00010B909F101000D18B9EB050003D4C0F121
:1005C000FF3609F10105A5EB09002BE0B9F1010F98
:1005D00001DA4FF001090020B9F1110F00904846EF
:1005E00001DD112300E003460AAA01A90CA8FFF7C8
:1005F000ABFEDDE90C704D460026834620780007EF
:100600000AD4AB4500DA5D4601A8012D04DD41198D
:1006100011F8011C302907D04F4502DA17F1040FF9
:1006200004DA012082460FE06D1EEEE7002F02DCA7
:10063000ED1B3E4403E0781CA84200DD7D1CB81B86
:1006400000F1010A4FF000472078000703D4AA45C3
:1006500001DB4FF0FF3A0021B7F1004F0DF14308E5
:100660008DF8431024D002202B23002F01DA7F4283
:100670002D230A21021EA0F1010000DC5FB197FBCF
:10068000F1FC97FBF1F201FB1C7C17460CF1300CDE
:1006900008F801CDEEE7A8F10100037021880905F3
:1006A00001D5452100E06521A0F1010800F8011CF9
:1006B00009980FA9A1EB0807FF1D00B101204119FE
:1006C00001EBEA70A1693844081A401EA061207845
:1006D000C00602D42046AFF30080099828B1D4E9BF
:1006E00001219047206A401C20622078C00622D554
:1006F0002046AFF300801EE0002E04DBB34502DD90
:1007000001A8805D00E03020D4E901219047206AF3
:10071000401C2062761CAAF101005FEA000A0AD19F
:1007200000F03EF8C0680168405CD4E901219047C0
:10073000206A401C2062281EA5F10105DCDC07E0D0
:10074000D4E9012118F8010B9047206A401C20626F
:10075000381EA7F10107F3DC2046AFF30080032029
:1007600011B041E601694A1C02610878704700B582
:100770008FB0CDE901310021059105497944CDE9DA
:10078000031011466846FFF755FD0FB000BD00008D
:10079000E5FFFFFF0A6802F8010B0A6070470000DE
:1007A000004870473000002030B5B0F10A0271F106
:1007B00000034FEA900E4EEA817EB0EB0E0061EB33
:1007C00091014FEA101E4EEA017E10EB0E0041EB44
:1007D00011114FEA102E4EEA016E10EB0E0041EBA4
:1007E00011214FEA104E4EEA014E10EB0E0041EB84
:1007F0001141401841F100014FEAD00040EA417038
:100800004FEAD1014FEA810444EA907410EB80056D
:1008100044EB01046D1944EB0404521BA3414FF057
:10082000000348BF0A3200D530BD401C41F1000131
:1008300030BD00002DE9F0411F4604460326016843
:10084000072A01F4006004DB08B116A505E016A52F
:1008500003E008B115A500E015A521F01000206007
:10086000A069C01EA0610FB1401EA0612046AFF379
:1008700000804FB1D4E9012138469047206A401CDE
:100880002062C01C206206E0206AFAE7D4E9012158
:1008900015F8010B9047761EF8D22046AFF3008082
:1008A000BDE8F0814E414E006E616E00494E46003B
:1008B000696E66002DE9F047814616468AB03548D4
:1008C00078440DC88DE80D0032487844801C03AC94
:1008D0000DC884E80D0041F69B300844372190FB99
:1008E000F1F290FBF1F5A5F1800501FB12041B3C30
:1008F00002D56442012000E00020DFF898A0804685
:100900000027FA44AAF1BE0A0EE0E0070AD03246F8
:10091000684607EB470101230AEB810101F03BFE2A
:100920008DE8070064107F1C002CEED1194F7F4426
:10093000AE3F19E0E80715D007EB04100DF1180AD7
:1009400090E80E008AE80E00C068F04201D19819C4
:1009500008903246012306A903A801F01CFE03AB50
:1009600083E807006D10641C002DE3D14FF00103F4
:1009700032466946B8F1000F03A802D001F0F6FD37
:1009800001E001F008FEC9E90001C9F808200AB039
:10099000BDE8F0874C26000000487047100000209A
:1009A0007546FFF7F9FFAE4605006946534620F04D
:1009B0000700854618B020B5FFF716FCBDE82040BB
:1009C0004FF000064FF000074FF000084FF0000B0B
:1009D000AC46ACE8C009ACE8C009ACE8C009ACE87A
:1009E000C00921F007018D46704710B50446AFF3EA
:1009F00000802046BDE81040FFF7E2BB4FF0013C0D
:100A000050F8042B51F8043B9A4221D1A2EB0C037D
:100A1000934313EACC1317D150F8042B51F8043B3D
:100A20009A4215D1A2EB0C03934313EACC130BD1DA
:100A300050F8042B51F8043B9A4209D1A2EB0C0365
:100A4000934313EACC13DBD04FF00000704700BF94
:100A5000D01A01BAB1FA81F101F0180122FA01F0BD
:100A6000CB40DBB2C0B2C01AC1F120012CFA01F3B5
:100A7000D11A914311EAC311E6D1704701491820F8
:100A8000ABBEFEE72600020070470000FEE7000054
:100A900040F2C000C2F2000000F028B97047000028
:100AA00090F82020013A012A08D8006800F11402C9
:100AB0000020136819431160704700BF00F1240241
:100AC00001204FF480211368194311607047000022
:100AD000026890F82030013B012B29D8B0B5D2F83C
:100AE0000002012340F00100C2F80002D1F814E036
:100AF000CC690EF01F0003FA00F0D2F81C326FEA46
:100B0000000C8343012CC2F81C3217D06CBBD2F806
:100B10000C3203EA0C03C2F80C32CB688C8844EA2E
:100B2000034302EBCE04C4F840320B4615E000BF8D
:100B3000416A41F48021416201207047D2F80C32B1
:100B40000343C2F80C320B688C8844EA034302EB7F
:100B5000CE04C4F8403201F10C038C681B8843EAD0
:100B6000044302EBCE04C4F84432D2F804328D6957
:100B700043EA0004D1F810E0096A002D08BF03EA37
:100B80000C04C2F80442D2F81432BEF1000F43EA5A
:100B9000000408BF03EA0C040129C2F8144204D17E
:100BA000D2F81C120843C2F81C02D2F8000220F04E
:100BB0000100C2F800020020B0BD00007047000034
:100BC00010B590F82040013C012C7BD8D0F800C033
:100BD00000290CBFDCF80C40DCF81040A4077BD0E7
:100BE0000CEB011CDCF8B0410CF5D87E14F00404C9
:100BF0009460DCF8B04119BFE4085460640D1460DF
:100C0000DEF800400CF5DA7E04F00204D460DCF873
:100C1000B44124075ABFDEF8004004F00F04082452
:100C20001461DEF800400029C4F307249461DEF863
:100C300000404FEA14445461DCF8B8211A7002688D
:100C400002EB0112D2F8B8214FEA12225A70026860
:100C500002EB0112D2F8B8214FEA12429A700268F0
:100C600002EB0112D2F8B8214FEA1262DA70026880
:100C700002EB0112D2F8BC211A71026802EB0112D8
:100C8000D2F8BC214FEA12225A71026802EB01121B
:100C9000D2F8BC214FEA12429A71026802EB0112AB
:100CA000D2F8BC214FEA1262DA7100680CBF00F181
:100CB0000C0100F11001002020220B681A430A6089
:100CC00010BD00BF00F1240101204FF480220B6809
:100CD0001A430A6010BD00BF00F1240101204FF447
:100CE00000120B681A430A6010BD00002DE9F04F96
:100CF00081B0044600684669D0F804908768D0F84F
:100D00000CB0D0F810A0D0F81880F10704D100255D
:100D100030071DD424E000BFF90710D00121BA0725
:100D2000816009D4780700F1AF80380700F1B68000
:100D3000204600F041FA02E0204600F03FFA00258C
:100D4000F80500F18780F80300F1B180300707D57E
:100D50001BF0100004D0206845F400751021C1601C
:100D6000700708D51BF0080005D020680821C16075
:100D7000204600F0ABF9B00706D52068C0688007B0
:100D800002D0204600F0A4F9700607D51AF0100032
:100D900004D0206845F4806510210161B00608D5B3
:100DA0001AF0080005D0206808210161204600F0F3
:100DB00091F9F00606D520680069800702D0204628
:100DC00000F08AF9B00308D519F0100005D02068AA
:100DD00010214160204600F0BFF9F00308D519F05A
:100DE000080005D0206808214160204600F0F0F995
:100DF000300440F19B805FEA497040F1948006F432
:100E0000807008EA102028435FEA8871014648BFD5
:100E100041F00201B20558BF01465FEA48700D4635
:100E200048BF45F00405700558BF0D46300540F138
:100E30007A8018F0700000F07680103800090528DC
:100E40006CD8DFE800F003595D61656945F008057D
:100E500064E000BF20684FF48071BA0581600BD454
:100E6000780515D438051DD4204600F0A9F9F803FB
:100E70007FF56CAF1BE000BF204600F0A3F9F8033C
:100E80007FF564AF13E000BF4FF4006558E700BF83
:100E900005F50055F8037FF559AF08E04FF480558C
:100EA0004EE700BF05F58045F8037FF54FAF20689A
:100EB0004FF48031BA0381600AD4780310D4380328
:100EC00014D4204600F080F930073FF541AF47E7E2
:100ED000204600F07BF930073FF53AAF40E700BF0E
:100EE00005F5004530073FF533AF39E705F58035A7
:100EF00030073FF52DAF33E745F010050EE000BF9A
:100F000045F020050AE000BF45F0400506E000BFBF
:100F100045F0800502E000BF45F4807520688169D6
:100F200021F07001816120680421416055B1606A3F
:100F300040EA05012046616201B0BDE8F04FFFF7CD
:100F40003DBE00BF01B0BDE8F08F0000002804BF27
:100F500001207047B0B5044690F8200010B9204633
:100F600000F06EF82068016841F00101016000F0B6
:100F70003FFA054620684168C90705D100F038FAF4
:100F8000401B0B28F6D310E0016821F0020101603C
:100F900000F02EFA054600BF2068416889070DD58C
:100FA00000F026FA401B0B28F6D3606A052140F4B6
:100FB00000306062012084F82010B0BD217E0268FC
:100FC000012922F0800208BF80320260617E02683F
:100FD000012922F0400208BF40320260A17E02686F
:100FE000012922F0200208BF20320260E17E02685F
:100FF000012922F0100218BF10320260217F02681E
:10100000012922F0080208BF08320260617F0268ED
:10101000012922F0040208BF04320260D4E901C2AF
:10102000D4E9033561691A432A431143ACF1010243
:101030001143C16100200121606284F82010B0BD1D
:10104000B0B586B040F60004C4F201040068A4F50F
:10105000244200219042059102D006B0B0BD00BFED
:1010600041F21800C4F20200426802AD42F0007280
:101070004260426802F000720192019A026842F0F6
:1010800004020260006800F00400019001984FF42F
:101090000060CDE9020104912046294600F09AF84B
:1010A0004FF48050029002200390032005902046C8
:1010B000294600F08FF815200021002200F018FAD0
:1010C000152000F003FA06B0B0BD00007047000024
:1010D000704700007047000010B540F27004C2F283
:1010E000000404F1340204F108030121FFF768FD54
:1010F000606C022818BF10BD2089208001F040FDDF
:101100004FF60063C4F2AF03002201F0DFFB46F2AA
:101110006663C4F20A034FF0663201F045FD01F048
:10112000A3FB606001F03EFE103402460B4607A1AF
:101130002046FFF76BF8204600F00EFE4FF080408F
:10114000016841F00101016010BD00BF4164432D01
:10115000252E32662D00000070470000B0B5044611
:1011600090F8200001281DD1022084F8200020687A
:10117000016821F00101016000F03AF9054600BF65
:1011800020684068C00713D000F032F9401B0B28DC
:10119000F6D3606A40F400306062052084F82000D5
:1011A0000120B0BD606A40F4002060620120B0BD43
:1011B00000206062B0BD0000704700007047000072
:1011C0007047000070470000704700007047000043
:1011D000704700002DE9F04F82B00E68002E00F03D
:1011E000FD8041F20042C4F20102042340F2004EAD
:1011F000904208BF03234FF6FF7CC4F2010E009318
:1012000000240123C1F2100C4FF0000A4FF0000936
:1012100044E000BF012704F00C030F229A402BEAA0
:10122000020207FA03F34FEA9A051A4346F825200B
:101230004E6840F20C45F202DEF8082054BF22EA64
:10124000080242EA0802C4F20105CEF808202A6822
:10125000B30254BF22EA080242EA08022A60B3033A
:10126000DEF8042054BF22EA080242EA0802F3032F
:10127000CEF80420DEF800204FF0010354BF22EA2C
:10128000080242EA0802CEF800200E680AF1010ABC
:1012900036FA0AF204F1040400F0A08003FA0AFB13
:1012A00016EA0B08F1D04E68664511DC122E55D8AF
:1012B000DFE806F0340A4448545454545454545407
:1012C00054545454544C5000D1F80C9046E000BF94
:1012D0004FF6FF72C1F2210296420FDC0022C1F2EA
:1012E000110296421AD00022C1F21202964215D083
:1012F0000022C1F22102964210D02FE00022C1F25A
:10130000220296420AD00022C1F23102964205D052
:101310000022C1F23202964220D100BF8A684AB14F
:10132000012A14BFC0F814B0C0F810B04FF008097B
:1013300014E000BF4FF0040910E000BFCA6802F1DA
:1013400008090BE04FF0000908E000BFCA6802F18D
:10135000040903E0CA6802F10C0900BF22460646F0
:10136000B8F5807F24BF203A043637680F259540B2
:1013700027EA050509FA02F22A433260CA79D20641
:101380007FF583AF41F21803C4F202031A68AEF589
:101390007E7642F001021A601A6802F001020192A0
:1013A000019A2AF0030256F802B040F60002C4F295
:1013B0000102904210D040F60042C4F20102904275
:1013C0003FF428AF41F20002C4F20102009F9042B4
:1013D00008BF02271FE700BF00271CE702B0BDE8D7
:1013E000F08F0000002A08BF090401617047000067
:1013F00040F2EC00C2F200000068704740F20000CA
:1014000040F2EC01C2F20000C2F2000100780A686A
:10141000104408607047000080B542F20000C4F23A
:101420000200016841F010010160032000F08CF817
:101430000F2000F005F800F027F8002080BD000024
:1014400070B540F20006C2F2000640F208013278A0
:10145000C2F200014FF47A730968B3FBF2F204465A
:10146000B1FBF2F1084600F061FB0F2C4FF00105D3
:1014700008D838B94FF0FF3021460022002500F08F
:1014800037F87460284670BD82B041F21800C4F28B
:1014900002000168022241F001010160016801F0CF
:1014A000010101910199416841F08051416040681A
:1014B00000F08050009000980420C4F20100016800
:1014C00062F31A61016002B070470000002848BF53
:1014D000704700F01F01012202FA01F11C2202EA0A
:1014E000D0004EF20012CEF2000281507047000090
:1014F00010B54EF60C5CCEF2000CDCF80030C3F3F5
:10150000022E8EF00704042C28BF0424BEF103032E
:101510004FF0FF3E0EFA04F438BF0023A143994078
:101520000EFA03F39A43114300F00F0200F16043F7
:101530000901043A03F564436244002848BF02F1FC
:101540000C03197010BD00004EF60C51CEF20001D4
:101550000A684FF6FF031A4060F30A2242F08060E7
:1015600040F0FD7008607047002804BF01207047FC
:101570002DE9F04381B042F20008C4F202080446AB
:10158000D8F800000D4600F0070088420CD2D8F8C9
:10159000000020F007002843C8F80000D8F8000039
:1015A00000F00700A8426CD1206841F204098107CD
:1015B000C4F2020917D5410705D5D9F8001041F446
:1015C000E061C9F80010010705D5D9F8001041F411
:1015D0006051C9F80010D9F80010A26821F0F0019C
:1015E0001143C9F80010C00742D1D8F8000000F03C
:1015F0000700A8420CD9D8F8000020F007002843C3
:10160000C8F80000D8F8000000F00700A84238D160
:101610002068410707D5D9F80010E26821F4E0619D
:101620001143C9F80010000708D5D9F80000216956
:1016300020F4605040EAC100C9F80000D9F8002049
:1016400002F00C00082841F20020C0F27A0051D1CB
:1016500042F63A73C2F38341C0F60003595CD203E9
:101660003CD440F60010C0F23D00484342E000BFC9
:10167000606802280AD001282AD159F8041C89037D
:1016800008D4012001B0BDE8F08300BF59F8041C64
:101690008901F6D5D9F8001021F003010843C9F8F3
:1016A0000000FFF7A5FE064641F28837D9F8000092
:1016B000616800F00C00B0EB810F96D0FFF798FE48
:1016C000801BB842F2D9032001B0BDE8F08300BF0F
:1016D00059F8041C8907D4D5DCE700BFD9F80020ED
:1016E00042F63873C2F34042C0F600039A5C4843A6
:1016F000B0FBF2F0D9F8001042F62872C1F30311E2
:10170000C0F60002515C40F2080220FA01F140F2FA
:101710000400C2F200000068C2F200021160FFF78C
:101720008FFE002001B0BDE8F0830000002804BF58
:10173000012070472DE9F04182B00446007841F263
:101740000006C007C4F202060CD0706800F00C005E
:10175000042840F081803068800303D56068002849
:1017600000F04E81207880071BD5706810F00C0FB8
:1017700009D0706800F00C00082840F08B80706879
:10178000C00300F187803068800703D520690128F5
:1017900040F036813068616920F0F80040EAC1000D
:1017A00030602078000713D4207840072CD4E569F6
:1017B000002D00F02081706800F00C00082840F037
:1017C000AF80012D40F00C81012002B0BDE8F08116
:1017D000A069002800F08C800020C4F24220012182
:1017E000C0F88014FFF704FE054600BF706A80074A
:1017F00000F1BA80FFF7FCFD401B0228F6D9032058
:1018000002B0BDE8F08100BFF0695FEAC00808D40B
:10181000F06940F08050F061F06900F08050009075
:10182000009847F20007C4F200073868C0054DD49D
:10183000386840F480703860FFF7DAFD054600BF75
:101840003868C00542D4FFF7D3FD401B6428F7D9A0
:10185000032002B0BDE8F081706800F00C00082899
:1018600003D17068C0033FF576AF6068002800F0D0
:101870000981B0F5A02F00F01D81B0F5803F00F088
:101880001D81306820F480303060306820F4802082
:1018900017E100BF2069002840F20000C4F2422096
:1018A00000F08C8001210160FFF7A2FD054600BF1A
:1018B000306880073FF56EAFFFF79AFD401B0228A6
:1018C000F6D9032002B0BDE8F08100BFE06800282F
:1018D00000F09A80052800F0B180012800F0B28065
:1018E000306A20F001003062306A20F00400ACE081
:1018F0000020C4F242200021C0F88014FFF778FDD8
:10190000054600BF706A80077FF54EAFFFF770FD98
:10191000401B0228F6D9032002B0BDE8F08100BFC9
:101920000027C4F2422700203866FFF761FD022D30
:1019300005460DD13068800140F1D680FFF758FD93
:10194000401B02284FF00300F4D902B0BDE8F0813B
:10195000306880014FD5FFF74BFD401B02284FF048
:101960000300F5D9F1E700BF40F20800C2F2000021
:10197000006844F6D351C1F26201A0FB0101480A9C
:10198000019000BF00BF0198411E002801913FF463
:101990000BAF00BF0198411E002801913FF404AF36
:1019A00000BF0198411E002801913FF4FDAE00BF29
:1019B0000198411E00280191E4D1F5E60021016063
:1019C000FFF716FD054600BF306880077FF5E9AEDA
:1019D000FFF70EFD401B02284FF00300F4D9B4E7D7
:1019E0007068216A00F480328A4209D1616A00F489
:1019F0007010884204D1002002B0BDE8F08100BF21
:101A0000012002B0BDE8F081306A20F001003062B0
:101A1000306A20F004003062FFF7EAFC054641F22C
:101A2000883700BF306A800722D5FFF7E1FC401BF2
:101A3000B8424FF00300F5D987E700BF306A40F0A5
:101A400004003062306A40F001003062FFF7D0FCE1
:101A5000054641F2883700BF306A800708D4FFF797
:101A6000C7FC401BB842F7D9032002B0BDE8F081A3
:101A7000B8F1000F3FF59BAEF06920F08050F061A7
:101A800095E600BF306820F480303060306820F484
:101A900080203060FFF7ACFC054600BF3068800353
:101AA0007FF560AEFFF7A4FC401B64284FF00300F5
:101AB000F4D94AE7306840F480203060306840F460
:101AC00080303060FFF794FC054600BF306880032B
:101AD0003FF548AEFFF78CFC401B6428F6D9032085
:101AE00002B0BDE8F08100BF206AB0F5803F05D1AB
:101AF0007168A26821F40031114371607168626AF3
:101B000021F4741111430843706001203866FFF717
:101B10006FFC0446306880013FF56DAFFFF768FC4D
:101B2000001B02284FF00300F4D90EE7411E0020ED
:101B3000B0EB116F1CBF012070474EF21002CEF2C5
:101B4000000251604EF62351CEF20001F0230B70DB
:101B50000721906011607047FEE70000FEE700007B
:101B6000FEE700007047000070470000FFF746BC2A
:101B7000704700001020C4F20000016821F001014C
:101B8000016040F2E800C2F2000001684A1C0260F5
:101B900027294FF0000207DB02604FF08040016808
:101BA000012221F00101016041F20000C4F20100B4
:101BB0004FF40051FFF716BCFEE7000090B0FFF7AE
:101BC0002BFC00240120CDE90B44CDE9094406900B
:101BD0000A904FF4E0104FF4803102250F9006A8D0
:101BE000CDE90714CDE90D51FFF7A0FD20B1EFF3CA
:101BF000108072B6FEE700BF0F20CDE901054FF45B
:101C00008060CDE9040401A802210394FFF7ACFC35
:101C100020B1EFF3108072B6FEE700BF41F2180664
:101C2000C4F20206306841F2000A40F01000306051
:101C30003068C4F2010A00F010000690069830687F
:101C40004FF4005140F0200030603068002200F076
:101C500020000690069830684FF4005440F00400CD
:101C600030603068002700F0040006900698504667
:101C7000FFF7B8FB4FF001084FF0020906A95046E4
:101C80000694CDE90787CDF82490FFF7A3FA40F238
:101C90007004C2F20004AAF52C41204640F8501FFF
:101CA00048214FF48032C0E90117C0E90372C0E94E
:101CB00005778783FFF74AF920B1EFF3108072B6FA
:101CC000FEE700BF0A20CDE90A8048F6C00004F113
:101CD0005005CDE90607CDE9080706A92846CDF845
:101CE0003880CDE90C780F97FEF7F2FE2846FFF713
:101CF00035FA28461021FEF7D3FE40F20310C4E95E
:101D00000977C4F82C90E06100F00EF9706848F68D
:101D10009F4140F0010070600C20C4F20000C0F848
:101D20001C8001620168012241F0010101604EF254
:101D30000010CEF20000016841F0805101604FF0C8
:101D40008040016821F00101016050464FF40051CC
:101D5000FFF748FBFEE700002DE9F04104460025AF
:101D60000FF2B818002703E000F036F9013701350B
:101D7000E05D6428FCD8DFE810F0CF006B006B005A
:101D80006B006B006B006B006B006B006B006B00FB
:101D90006B006B006B006B006B006B006B006B00EB
:101DA0006B006B006B006B006B006B006B006B00DB
:101DB0006B006B006B006B006B006B006B006B00CB
:101DC0006B006B006B006B006B006B006B006B00BB
:101DD0006B006B006D0073006B00650087008D0069
:101DE000930099009F00A500AB00B100B7006B0005
:101DF0006B006B006B006B006B006B00BD006B0039
:101E0000C3006B006B006B006B006B006B006B0022
:101E10006B006B006B006B006B006B006B006B006A
:101E20006B006B006B006B006B006B006B006B005A
:101E30006B006B006B006B006B006B006B006B004A
:101E40006B00C900C5F10800C0B27E218CE700BF5D
:101E50008EE700BFC5F10800C0B2012184E700BFD2
:101E6000381910F8010C3038C0B2092898BF18F89A
:101E70000060C5F1090046F08001C0B2C9B200F0AF
:101E8000ABF8013774E700BFC5F10800C0B23021DC
:101E90006AE700BFC5F10800C0B26D2164E700BF6A
:101EA000C5F10800C0B279215EE700BFC5F10800A6
:101EB000C0B2332158E700BFC5F10800C0B25B21B2
:101EC00052E700BFC5F10800C0B25F214CE700BF78
:101ED000C5F10800C0B2702146E700BFC5F1080097
:101EE000C0B27F2140E700BFC5F10800C0B27B212E
:101EF0003AE700BFC5F10800C0B2772134E700BF60
:101F0000C5F10800C0B24E212EE700BFC5F10800A0
:101F1000C0B23D2128E700BFBDE8F0817E306D7979
:101F2000335B5F707F7B000080B500F017F80920FD
:101F3000002100F051F80A200F2100F04DF80B208D
:101F4000072100F049F80C20012100F045F80F208E
:101F50000021BDE8804000F03FB8000041F21800C9
:101F6000C4F20200416841F480414160016841F0DF
:101F70000801016040F60440C4F20100016889B222
:101F80000160016841F480310160816841F4805151
:101F90008160016841F0304141F43001016043F655
:101FA0000000C4F20000018841F0040101800188B2
:101FB00041F010010180018821F0030101800188B6
:101FC00041F400710180018841F480710180018831
:101FD00041F040010180704740F60C4CC4F2010C06
:101FE000DCF8002043F60803C4F2000322F4805218
:101FF000CCF800201A88920709D41A8892075CBF8F
:102000001A885FEA827202D41A889207F2D5988001
:102010001888C00709D11888C00704BF18885FEA6C
:10202000C07002D11888C007F2D09888188880073D
:1020300009D4188880075CBF18885FEA807002D4D2
:1020400018888007F2D599801888C00709D11888A8
:10205000C00704BF18885FEAC07002D11888C007A3
:10206000F2D09888DCF8000040F48050CCF80000F2
:1020700070475FEA400C08BF91F0000F4FEA8C23D5
:102080004FEAC12243EA51514FEA1C5018BF00F5F4
:10209000F0404FEA300018BF41F000415FEA6C5C4D
:1020A00000F02980BCF1FF3F08BF40F0804070473E
:1020B000130C06BF12044FF0100C4FF0000C130E5F
:1020C00004BF12020CF1080C130F04BF12010CF133
:1020D000040C930F04BF92000CF1020CD30F04BF49
:1020E00052000CF1010C11464FF00002A0F11F004C
:1020F000A0EB0C00704711F0004F08BF704731F0A3
:1021000000413FF4D5AF0B0C06BF09044FF0100C93
:102110004FF0000C0B0E04BF09020CF1080C0B0F62
:1021200004BF09010CF1040C8B0F04BF89000CF1F2
:10213000020CCB0F04BF49000CF1010CCCF12003C1
:1021400022FA03F341EA030102FA0CF2A0EB0C00BD
:1021500000F101007047000023F07F4720F07F4C22
:1021600080EA030000F00040ACEB070303F57C536A
:1021700003F1FF032DE9804909B44FEA144324EA2F
:1021800003484FEA154B25EA0B4E0FF2042606EBE7
:1021900013273E7803FB0667C7F5000707FB06F623
:1021A0004FEAD64606F102064FEA543707FB066CA3
:1021B000CCF1005C4FEA1C472CEA074C0CFB06F5FF
:1021C00007FB06F404EB15464FEA961649085FEA4A
:1021D000320234BF00204FF000404FEAD13706FBF7
:1021E00007FC4FEA1C4C0CFB0BF7D21B03FB0CF754
:1021F00061EB07010CFB0EF7B0EB074072EB1742E7
:102200000CFB08F734BFA2EB0742B2EB074261EBCD
:1022100017414FEA0C444FEA910706FB07FC4FEACF
:102220001C4C0CFB0BF7B0EBC74072EB573203FBB7
:102230000CF734BFA2EBC742B2EBC74261EB573198
:102240000CFB0EF7B0EBC70072EB57720CFB08F7F4
:1022500034BFA2EBC702B2EBC70261EB57714FEA82
:10226000816141EA92114FEA826242EA90124FEA9A
:10227000806004EBCC04039F4FEAD13706FB07FCD8
:102280004FEA1C4C0CFB0BF7D21B03FB0CF761EB6A
:1022900007010CFB0EF7B0EB074072EB17420CFB8B
:1022A00008F734BFA2EB0742B2EB074261EB1741DC
:1022B0004FEA8C5504EB9C244FEA910706FB07FC80
:1022C0004FEA1C4C0CFB0BF7B0EBC74072EB5732DC
:1022D00003FB0CF734BFA2EBC742B2EBC74261EB82
:1022E00057310CFB0EF7B0EBC70072EB57720CFBCB
:1022F00008F734BFA2EBC702B2EBC70261EB57711C
:102300004FEA816141EA92114FEA826242EA9012F9
:102310004FEA806015EB4C2544F100044FEAD137B9
:1023200006FB07FC4FEA1C4C0CFB0BF7D21B03FB14
:102330000CF761EB07010CFB0EF7B0EB074072EBFB
:1023400017420CFB08F734BFA2EB0742B2EB07427F
:1023500061EB17414FEA813141EA92414FEA823203
:1023600042EA90424FEA80304FEA0C7615EB1C159A
:1023700044F1000448EA03434EEA0B484FF0000ED4
:10238000B2EB080C71EB030724BF624639464EEBF3
:102390000E0E4FF0000B0018524149414BEB0B0B56
:1023A000B2EB080C71EB03077BF1000B24BF624614
:1023B00039464EEB0E0E4FF0000B001852414941CA
:1023C0004BEB0B0BB2EB080C71EB03077BF1000B33
:1023D00024BF624639464EEB0E0E51EA020718BF83
:1023E00046F0010616EB0E7655F1000254F100019D
:1023F00003D5BDE88901BDE80088BDE88901BDE8D5
:102400000048B619524141EB0101A3F101037047A5
:1024100080807F7E7D7C7B7A797877767675747321
:10242000727171706F6E6E6D6C6C6B6A6A696868E0
:10243000676666656464636362616160605F5F5E76
:102440005E5D5D5C5C5B5B5A5A59595858575756EC
:102450005655555554545353525252515150505051
:102460004F4F4F4E4E4D4D4D4C4C4C4B4B4B4A4AA3
:102470004A494949484848474747474646464545E7
:102480004544444444434343434242424241414120
:102490009C46002B30D477002BD04FEA37071CB571
:1024A00003B44FF010004FF01001BAF1000F06D046
:1024B000BCF1000FDCBF40F0080040F008014FF015
:1024C00000000FBCBDE810400BF1010BBBF1010F88
:1024D00008BF5FEA170722BF12F1010211F10101E3
:1024E0004FF0004143F1000300F0004043EA0000D8
:1024F0007047F9D35708D0E746EA06464FEA164632
:1025000013F1400F1FDD13F1200FDFBF16430A4602
:10251000002120335B42BED0C3F1200746EA0646C5
:102520004FEA164602FA07F746EA070622FA03F2CE
:10253000C3F1200701FA07F742EA070221FA03F183
:102540004FF00003A7E746EA020646EA06464FEACE
:10255000164646EA0106BCBF46EA0646360C4FF070
:1025600000034FF000024FF0000194E72DE9804C8A
:1025700070B49A46934691E8380007C831EA400C97
:1025800048BF34EA430C03D5FFF7E6FDFFF780FFB1
:10259000F0BCBDE8008C2DE9804C70B49A4693469F
:1025A00091E8380007C810F0804F08BF13F0804F43
:1025B00003D100F005F8FFF76BFFF0BCBDE8008C1D
:1025C00020F07F4723F07F4C80EA030000F00040BA
:1025D00007EB0C03A3F57C53A3F1FE0392F0000F6D
:1025E00000F0B38095F0000F00F077802DE90149ED
:1025F0004FEA114021EA00484FEA144624EA064710
:1026000000FB06FC08FB06F607FB08F818EB06487B
:102610004CEB164C00FB07F718EB07484CEB174048
:102620004FEA124B22EA0B4E4FEA154625EA0647BF
:102630000BFB06FC0EFB06F607FB0EFE1EEB064E22
:102640004CEB164C0BFB07F71EEB074E4CEB174BF6
:1026500018EB0B0840F1000018EB0E0B58EB0008CC
:1026600040F100008F1A4FF000014FF000063CBF10
:10267000C943661B14BFB5EB040C00213CBFC94322
:10268000F61B4FEA174427EA04454FEA1C472CEA99
:10269000074C04FB076205FB07F70CFB05F616EB7E
:1026A000074642EB174204FB0CFC16EB0C4642EBD0
:1026B0001C421BEB060658EB020241414EEA8E0E0D
:1026C00046EA9E0601D5BDE80189B619524141EBA3
:1026D0000101A3F10103BDE801894FEA144524EA91
:1026E00005464FEA114721EA074C05FB07F406FBB4
:1026F00007F70CFB06F111EB074144EB174405FB10
:102700000CFC11EB0C4144EB1C444FEA124722EA4B
:10271000074C05FB07F206FB07F70CFB06F616EB6A
:10272000074642EB174205FB0CFC16EB0C4642EB4E
:102730001C456A1854F1000148BF7047B619524150
:1027400041EB0101A3F10103704795F0000F37D071
:102750004FEA114221EA02464FEA144724EA074CA5
:1027600002FB07F106FB07F70CFB06F414EB07442A
:1027700041EB174102FB0CFC14EB0C4441EB1C41F8
:102780004FEA154725EA074C02FB07F506FB07F75A
:102790000CFB06F616EB074645EB174502FB0CFC57
:1027A00016EB0C4645EB1C42121951F1000148BFD3
:1027B0007047B619524141EB0101A3F10103704783
:1027C0004FEA144524EA05464FEA114721EA074C2F
:1027D00005FB07F106FB07F70CFB06F212EB0742BD
:1027E00041EB174105FB0CFC12EB0C4251EB1C4179
:1027F0004FF0000648BF7047921841EB0101A3F16A
:1028000001037047490050EAC12018BF04204A0D57
:1028100018BF40F0010040F2FF72B2EB515F08BFF9
:1028200040F00200012808BF0520704730380A2810
:1028300001D20120704700207047000010B5002928
:102840000AD00878002807D005487844FEF7D6F863
:10285000002801D0002010BD0248784410BD0000BF
:10286000220700001A07000021F0004201F0004397
:10287000A2F16052B2F5801F28BFD2F17F6C0BD954
:102880005FEA001C43EAC20242EB507018BF704777
:1028900028BF20F001007047B2F5801FBCBF18466A
:1028A00070474FEA410C1CF5001F02D2084600F0A9
:1028B000EABA70B500F022FA00000089FFF7F6BF0F
:1028C0004FF00040A0F58000704700002DE9C041A6
:1028D00030B4DFF8A4C23CEA111418BF3CEA131468
:1028E00000F0ED801CEA111481EA030544EAD57476
:1028F00018BF1CEA131500F0C880A4EB050404F10E
:102900007F7404F500344FF0004545EAC12145EAE3
:10291000C32341EA505143EA52534FEAC0204FEAE1
:10292000C222994208BF904200F09D804FEA136591
:102930000FF24416765D4FEA134506FB05F7C7F123
:10294000807706FB07F74FEAD737A7FB0368764285
:10295000A7FB06CEC8F5803838BFA8F1010807FBF1
:1029600008E6A6FB028C4FF0000EE6FB03CEDCF17E
:10297000000CCEF1004E38BFAEF1010EA6FB0C5894
:102980004FF00007E6FB0E87A1FB08C6A0FB07CEB1
:1029900016EB0E064FF0000545F10005E1FB07655B
:1029A00015F1E04E7EBFA4F580345FEA46066D4126
:1029B00016F1800745F100054FEA172747EA05673A
:1029C0004FEA15254FEA0666A6F1DE46B6F1805FAE
:1029D00020D9384605EBC47124F0010C01EB0C1131
:1029E000BCF1FE6F02D8F0BCBDE8008124425CBFA0
:1029F00001F5801E9EEAC47F02D4F0BCBDE80081D0
:102A0000244200F13980A1F1C041F0BCBDE8004191
:102A100000F0C2B94FEAD02040EA41504FEAD1213C
:102A20004FEAD22242EA43524FEAD323A7FB02865F
:102A300007FB036605FB02661EEA0E0F58BFA6EBF6
:102A40000056B6EB00564FEA520E4EEAC37E18EB24
:102A50000E0E56EB530EBCD518EB02085E417F1CE0
:102A600055F10005B5E74FF480154FF000074FF022
:102A700000064FF00008ACE701F1C04101F0004151
:102A80004FF00000F0BCBDE800810CEA131511EA1C
:102A90000C1F00D00CE013EA0C1F00F026804FF052
:102AA000000081EA030101F00041F0BCBDE80081B3
:102AB000F0BCBDE8004181EA030100F06DB9F0BC53
:102AC000BDE8004170B500F019F900BF097EFC3E79
:102AD00000F007B84FF0000081EA030101F0004167
:102AE000704781EA030100F057B9F0BCBDE800412E
:102AF00022494FF000007047FFFDFBF9F7F5F4F2B3
:102B0000F0EEEDEBE9E8E6E4E3E1E0DEDDDBDAD888
:102B1000D7D5D4D3D1D0CFCDCCCBCAC8C7C6C5C4E6
:102B2000C2C1C0BFBEBDBCBBBAB9B8B7B6B5B4B3FD
:102B3000B2B1B0AFAEADACABAAA9A8A8A7A6A5A4E8
:102B4000A3A3A2A1A09F9F9E9D9C9C9B9A999998AC
:102B50009797969595949393929191908F8F8E8E4F
:102B60008D8C8C8B8B8A89898888878786858584DC
:102B700084838382828181800000FF070000F87FC8
:102B8000B0FA80F310FA03F10AD0C3F11D0303F584
:102B900080634FEA03524FEA415002EBD121704764
:102BA0004FF000007047000070B5DFF848C11CEA24
:102BB000111E1EBF1CEA13159EEA0C0F95EA0C0F9E
:102BC00000F06F8081EA03044EEAD47EAE4421EA2D
:102BD0004C1123EA4C1341F4801143F48013AEF1FD
:102BE0007F7EA1FB024CA0FB0365361955EB0C055B
:102BF000A1FB034C4CF10003A0FB021C16EB0C06DE
:102C0000654153F10003094218BF46F0010613F471
:102C1000007F0BD14FEA03314FEA053041EA1551ED
:102C200040EA165034036FF003020AE04FEAC32172
:102C30004FEAC52041EA555140EA5650F4026FF080
:102C4000020202EB2E4201EB025585EACE710AD058
:102C50005FEA440C18BF24F0004450F1000041F139
:102C6000000120EAD47040F2FE7C624500D270BDC3
:102C7000A84214BF4FF080444FF04044002E08BFDC
:102C80000024BEF1806FA8BFA1F1C041BDE8704033
:102C900080F2828001F1C04101F000414FF000005C
:102CA00070470CEA13159EEA0C0F18BF95EA0C0F3B
:102CB00006D081EA030E4FF000000EF0004170BD17
:102CC00000F01CF88900013E00F007B800F009B8D8
:102CD0004FEA430C5FEA5C5C08D081EA030100F034
:102CE0005BB84FEA410C5FEA5C5CF6D102494FF0F9
:102CF000000070470000FF070000F87F0EF1020E91
:102D00002EF0030E5EF8046B364205D4012A43EB25
:102D1000030515F5001F12D8012841EB010C1CF525
:102D2000001F0CD80ED14FEAD17C0CEB4C0C0CF1EF
:102D3000020C15F5001F08BF4CEBD37C04E04FF0EC
:102D4000080C01E04FEAD37C0CEB4C0526FA05F6A3
:102D500006F00706B6F1040C06D20EEB860CBDE8B1
:102D600070404CF0010C6047DFE80CF0090B0202E8
:102D70004FF00041A1F500214FF0000070BD194651
:102D80001046012851EB010418BFD4F5001484BF8C
:102D9000002001F0004170BD0808A0F500114FEAC5
:102DA0003101704743004FEAD30C4FEA3C0C4340DB
:102DB0001FBF40070CF1605113F0FE4F70471CF02D
:102DC000006F03D10CF00041002070470CF000436D
:102DD00043EA507040EACC0010B500F00EF800BF96
:102DE000000000924FEA0001FFF7D6BF4FF000410C
:102DF000A1F500214FF0000070470EF1020E2EF0F9
:102E0000030E5EF8044B244204D44FEA4102B2F1AF
:102E10007F4F11D84FEA4003B3F17F4F0CD80ED14A
:102E20004FEAD07C0CEB4C0C0CF1020CB2F17F4F52
:102E300008BF4CEBD17C04E04FF0080C01E04FEAF6
:102E4000D17C0CEB4C0324FA03F404F00704B4F136
:102E5000040C06D20EEB840CBDE810404CF0010CC3
:102E60006047DFE80CF0070802024FF00040A0F5D1
:102E7000800010BD0846420018BFD2F1807288BFA2
:102E800000F0004010BDFF2141EAD050C00570475E
:102E9000FDF732BB02400000000000A0000000006F
:102EA00005400000000000C8000000000C400000C9
:102EB0000000409C00000000194000000020BCBE43
:102EC0000000000034400000BFC91B8E0000000459
:102ED000B5400000504BCFD06607E2CF01000000A4
:102EE0006C4100003E8251AADFEEA73401000000D1
:102EF000D9420000DCB5A0E23A301F97FFFFFFFF88
:102F0000B4450000FD25A0C8E9A3C14FFFFFFFFFA6
:102F1000FF3F00000000008000000000FF3F0000B5
:102F20000000008000000000000000000000000021
:102F3000010203040607080901020203040506074B
:102F400008090A0B0C0D0E0F10100000882F000846
:102F5000000000201000000050010008982F000819
:102F600010000020E0060000700100081C000000B6
:102F700043000000F8FFFFFF0C0000000E000000FF
:102F80000F0000002E0000000100000010000000F3
:082F900000127A0000000000AD
:04000005080000ED02
:00000001FF
